{
  "_format": "hh-sol-artifact-1",
  "contractName": "DefiDeposit",
  "sourceName": "contracts/DefiDeposit.sol",
  "abi": [
    {
      "inputs": [
        {
          "internalType": "address",
          "name": "_tokenAddress",
          "type": "address"
        }
      ],
      "stateMutability": "nonpayable",
      "type": "constructor"
    },
    {
      "anonymous": false,
      "inputs": [
        {
          "indexed": true,
          "internalType": "address",
          "name": "user",
          "type": "address"
        },
        {
          "indexed": false,
          "internalType": "uint256",
          "name": "amount",
          "type": "uint256"
        },
        {
          "indexed": false,
          "internalType": "bool",
          "name": "isEth",
          "type": "bool"
        }
      ],
      "name": "Deposit",
      "type": "event"
    },
    {
      "anonymous": false,
      "inputs": [
        {
          "indexed": true,
          "internalType": "address",
          "name": "user",
          "type": "address"
        },
        {
          "indexed": false,
          "internalType": "uint256",
          "name": "amount",
          "type": "uint256"
        }
      ],
      "name": "InterestPaid",
      "type": "event"
    },
    {
      "anonymous": false,
      "inputs": [
        {
          "indexed": true,
          "internalType": "address",
          "name": "user",
          "type": "address"
        },
        {
          "indexed": false,
          "internalType": "uint256",
          "name": "amount",
          "type": "uint256"
        },
        {
          "indexed": false,
          "internalType": "bool",
          "name": "isEth",
          "type": "bool"
        }
      ],
      "name": "Withdrawal",
      "type": "event"
    },
    {
      "inputs": [],
      "name": "INTEREST_RATE",
      "outputs": [
        {
          "internalType": "uint256",
          "name": "",
          "type": "uint256"
        }
      ],
      "stateMutability": "view",
      "type": "function"
    },
    {
      "inputs": [],
      "name": "INTEREST_RATE_DENOMINATOR",
      "outputs": [
        {
          "internalType": "uint256",
          "name": "",
          "type": "uint256"
        }
      ],
      "stateMutability": "view",
      "type": "function"
    },
    {
      "inputs": [],
      "name": "depositETH",
      "outputs": [],
      "stateMutability": "payable",
      "type": "function"
    },
    {
      "inputs": [
        {
          "internalType": "uint256",
          "name": "amount",
          "type": "uint256"
        }
      ],
      "name": "depositToken",
      "outputs": [],
      "stateMutability": "nonpayable",
      "type": "function"
    },
    {
      "inputs": [
        {
          "internalType": "address",
          "name": "",
          "type": "address"
        }
      ],
      "name": "deposits",
      "outputs": [
        {
          "internalType": "uint256",
          "name": "ethBalance",
          "type": "uint256"
        },
        {
          "internalType": "uint256",
          "name": "tokenBalance",
          "type": "uint256"
        },
        {
          "internalType": "uint256",
          "name": "depositTime",
          "type": "uint256"
        }
      ],
      "stateMutability": "view",
      "type": "function"
    },
    {
      "inputs": [],
      "name": "getContractETHBalance",
      "outputs": [
        {
          "internalType": "uint256",
          "name": "",
          "type": "uint256"
        }
      ],
      "stateMutability": "view",
      "type": "function"
    },
    {
      "inputs": [],
      "name": "getContractTokenBalance",
      "outputs": [
        {
          "internalType": "uint256",
          "name": "",
          "type": "uint256"
        }
      ],
      "stateMutability": "view",
      "type": "function"
    },
    {
      "inputs": [],
      "name": "getETHBalance",
      "outputs": [
        {
          "internalType": "uint256",
          "name": "",
          "type": "uint256"
        }
      ],
      "stateMutability": "view",
      "type": "function"
    },
    {
      "inputs": [],
      "name": "getTokenBalance",
      "outputs": [
        {
          "internalType": "uint256",
          "name": "",
          "type": "uint256"
        }
      ],
      "stateMutability": "view",
      "type": "function"
    },
    {
      "inputs": [],
      "name": "token",
      "outputs": [
        {
          "internalType": "contract IERC20",
          "name": "",
          "type": "address"
        }
      ],
      "stateMutability": "view",
      "type": "function"
    },
    {
      "inputs": [
        {
          "internalType": "uint256",
          "name": "amount",
          "type": "uint256"
        }
      ],
      "name": "withdrawETH",
      "outputs": [],
      "stateMutability": "nonpayable",
      "type": "function"
    },
    {
      "inputs": [
        {
          "internalType": "uint256",
          "name": "amount",
          "type": "uint256"
        }
      ],
      "name": "withdrawToken",
      "outputs": [],
      "stateMutability": "nonpayable",
      "type": "function"
    }
  ],
  "bytecode": "0x608060405234801561001057600080fd5b50604051610d86380380610d8683398101604081905261002f91610059565b6001600055600280546001600160a01b0319166001600160a01b0392909216919091179055610087565b60006020828403121561006a578081fd5b81516001600160a01b0381168114610080578182fd5b9392505050565b610cf0806100966000396000f3fe6080604052600436106100a75760003560e01c80638c89a0ad116100645780638c89a0ad14610158578063cc3266e81461016d578063f14210a614610182578063f6326fb3146101a2578063fc0c546a146101aa578063fc7e286d146101cc576100a7565b8063317d9453146100ac57806350baa622146100d75780635b72a33a146100f95780636215be771461010e5780636e9472981461012e57806382b2e25714610143575b600080fd5b3480156100b857600080fd5b506100c16101fb565b6040516100ce9190610c07565b60405180910390f35b3480156100e357600080fd5b506100f76100f23660046109f8565b610282565b005b34801561010557600080fd5b506100c1610405565b34801561011a57600080fd5b506100f76101293660046109f8565b61040b565b34801561013a57600080fd5b506100c161054b565b34801561014f57600080fd5b506100c16105f3565b34801561016457600080fd5b506100c161060a565b34801561017957600080fd5b506100c161060e565b34801561018e57600080fd5b506100f761019d3660046109f8565b610614565b6100f761075b565b3480156101b657600080fd5b506101bf61080c565b6040516100ce9190610a28565b3480156101d857600080fd5b506101ec6101e73660046109aa565b61081b565b6040516100ce93929190610c20565b6002546040516370a0823160e01b81526000916001600160a01b0316906370a082319061022c903090600401610a28565b60206040518083038186803b15801561024457600080fd5b505afa158015610258573d6000803e3d6000fd5b505050506040513d601f19601f8201168201806040525081019061027c9190610a10565b90505b90565b61028a61083b565b600081116102b35760405162461bcd60e51b81526004016102aa90610b24565b60405180910390fd5b6102bc33610865565b33600090815260016020819052604090912001548111156102ef5760405162461bcd60e51b81526004016102aa90610b6c565b3360009081526001602081905260408220018054839290610311908490610c8d565b909155505060025460405163a9059cbb60e01b81526001600160a01b039091169063a9059cbb906103489033908590600401610a60565b602060405180830381600087803b15801561036257600080fd5b505af1158015610376573d6000803e3d6000fd5b505050506040513d601f19601f8201168201806040525081019061039a91906109d8565b6103b65760405162461bcd60e51b81526004016102aa90610af5565b336001600160a01b03167f06e0c61e7e9f4912ee1f3ce060b59207b98f9a232d711462af3166aeeed1250a8260006040516103f2929190610c10565b60405180910390a26104026109a3565b50565b6101f481565b61041361083b565b600081116104335760405162461bcd60e51b81526004016102aa90610a79565b6002546040516323b872dd60e01b81526001600160a01b03909116906323b872dd9061046790339030908690600401610a3c565b602060405180830381600087803b15801561048157600080fd5b505af1158015610495573d6000803e3d6000fd5b505050506040513d601f19601f820116820180604052508101906104b991906109d8565b6104d55760405162461bcd60e51b81526004016102aa90610af5565b6104de33610865565b3360009081526001602081905260408220018054839290610500908490610c36565b90915550503360008181526001602052604080822042600290910155517f693c1828300d1cab0919b948d714897f817e305af51c026ad14233b6a8939adb916103f291859190610c10565b3360009081526001602052604081206002015461056a5750600061027f565b336000908152600160205260408120600201546105879042610c8d565b9050600061059b6127106301e13380610c6e565b3360009081526001602052604090205483906105ba906101f490610c6e565b6105c49190610c6e565b6105ce9190610c4e565b336000908152600160205260409020549091506105ec908290610c36565b9250505090565b336000908152600160208190526040909120015490565b4790565b61271081565b61061c61083b565b6000811161063c5760405162461bcd60e51b81526004016102aa90610b24565b61064533610865565b336000908152600160205260409020548111156106745760405162461bcd60e51b81526004016102aa90610abe565b3360009081526001602052604081208054839290610693908490610c8d565b9091555050604051600090339083906106ab9061027f565b60006040518083038185875af1925050503d80600081146106e8576040519150601f19603f3d011682016040523d82523d6000602084013e6106ed565b606091505b505090508061070e5760405162461bcd60e51b81526004016102aa90610ba3565b336001600160a01b03167f06e0c61e7e9f4912ee1f3ce060b59207b98f9a232d711462af3166aeeed1250a83600160405161074a929190610c10565b60405180910390a2506104026109a3565b61076361083b565b600034116107835760405162461bcd60e51b81526004016102aa90610a79565b61078c33610865565b33600090815260016020526040812080543492906107ab908490610c36565b9091555050336000818152600160208190526040918290204260029091015590517f693c1828300d1cab0919b948d714897f817e305af51c026ad14233b6a8939adb916107fa91349190610c10565b60405180910390a261080a6109a3565b565b6002546001600160a01b031681565b600160208190526000918252604090912080549181015460029091015483565b6002600054141561085e5760405162461bcd60e51b81526004016102aa90610bd0565b6002600055565b6001600160a01b03811660009081526001602052604081206002015461088b9042610c8d565b90506000811180156108b457506001600160a01b03821660009081526001602052604090205415155b156109825760006108cb6127106301e13380610c6e565b6001600160a01b03841660009081526001602052604090205483906108f3906101f490610c6e565b6108fd9190610c6e565b6109079190610c4e565b90508015610980576001600160a01b03831660009081526001602052604081208054839290610937908490610c36565b92505081905550826001600160a01b03167f16cbc685358ca7d4e6b273dcdf2cb5d18c80b950aa2319b519756cd016233a6c826040516109779190610c07565b60405180910390a25b505b506001600160a01b0316600090815260016020526040902042600290910155565b6001600055565b6000602082840312156109bb578081fd5b81356001600160a01b03811681146109d1578182fd5b9392505050565b6000602082840312156109e9578081fd5b815180151581146109d1578182fd5b600060208284031215610a09578081fd5b5035919050565b600060208284031215610a21578081fd5b5051919050565b6001600160a01b0391909116815260200190565b6001600160a01b039384168152919092166020820152604081019190915260600190565b6001600160a01b03929092168252602082015260400190565b60208082526025908201527f4465706f73697420616d6f756e74206d75737420626520677265617465722074604082015264068616e20360dc1b606082015260800190565b60208082526018908201527f496e73756666696369656e74204554482062616c616e63650000000000000000604082015260600190565b602080825260159082015274151bdad95b881d1c985b9cd9995c8819985a5b1959605a1b604082015260600190565b60208082526028908201527f5769746864726177616c20616d6f756e74206d75737420626520677265617465604082015267072207468616e20360c41b606082015260800190565b6020808252601a908201527f496e73756666696369656e7420746f6b656e2062616c616e6365000000000000604082015260600190565b602080825260139082015272115512081d1c985b9cd9995c8819985a5b1959606a1b604082015260600190565b6020808252601f908201527f5265656e7472616e637947756172643a207265656e7472616e742063616c6c00604082015260600190565b90815260200190565b9182521515602082015260400190565b9283526020830191909152604082015260600190565b60008219821115610c4957610c49610ca4565b500190565b600082610c6957634e487b7160e01b81526012600452602481fd5b500490565b6000816000190483118215151615610c8857610c88610ca4565b500290565b600082821015610c9f57610c9f610ca4565b500390565b634e487b7160e01b600052601160045260246000fdfea264697066735822122011abfa60c668baac10a6a0ac3229e26373e561551b872488b4e59c13a8bf3cc564736f6c63430008000033",
  "linkReferences": {},
  "deployedLinkReferences": {}
}