{
  "_format": "hh-sol-artifact-1",
  "contractName": "DefiDeposit",
  "sourceName": "contracts/DefiDeposit.sol",
  "abi": [
    {
      "inputs": [
        {
          "internalType": "address",
          "name": "_tokenAddress",
          "type": "address"
        }
      ],
      "stateMutability": "nonpayable",
      "type": "constructor"
    },
    {
      "anonymous": false,
      "inputs": [
        {
          "indexed": true,
          "internalType": "address",
          "name": "user",
          "type": "address"
        },
        {
          "indexed": false,
          "internalType": "uint256",
          "name": "amount",
          "type": "uint256"
        },
        {
          "indexed": false,
          "internalType": "bool",
          "name": "isEth",
          "type": "bool"
        }
      ],
      "name": "Deposit",
      "type": "event"
    },
    {
      "anonymous": false,
      "inputs": [
        {
          "indexed": true,
          "internalType": "address",
          "name": "user",
          "type": "address"
        },
        {
          "indexed": false,
          "internalType": "uint256",
          "name": "amount",
          "type": "uint256"
        }
      ],
      "name": "InterestPaid",
      "type": "event"
    },
    {
      "anonymous": false,
      "inputs": [
        {
          "indexed": true,
          "internalType": "address",
          "name": "user",
          "type": "address"
        },
        {
          "indexed": false,
          "internalType": "uint256",
          "name": "amount",
          "type": "uint256"
        },
        {
          "indexed": false,
          "internalType": "bool",
          "name": "isEth",
          "type": "bool"
        }
      ],
      "name": "Withdrawal",
      "type": "event"
    },
    {
      "inputs": [],
      "name": "INTEREST_RATE",
      "outputs": [
        {
          "internalType": "uint256",
          "name": "",
          "type": "uint256"
        }
      ],
      "stateMutability": "view",
      "type": "function"
    },
    {
      "inputs": [],
      "name": "INTEREST_RATE_DENOMINATOR",
      "outputs": [
        {
          "internalType": "uint256",
          "name": "",
          "type": "uint256"
        }
      ],
      "stateMutability": "view",
      "type": "function"
    },
    {
      "inputs": [],
      "name": "depositETH",
      "outputs": [],
      "stateMutability": "payable",
      "type": "function"
    },
    {
      "inputs": [
        {
          "internalType": "uint256",
          "name": "amount",
          "type": "uint256"
        }
      ],
      "name": "depositToken",
      "outputs": [],
      "stateMutability": "nonpayable",
      "type": "function"
    },
    {
      "inputs": [
        {
          "internalType": "address",
          "name": "",
          "type": "address"
        }
      ],
      "name": "deposits",
      "outputs": [
        {
          "internalType": "uint256",
          "name": "ethBalance",
          "type": "uint256"
        },
        {
          "internalType": "uint256",
          "name": "tokenBalance",
          "type": "uint256"
        },
        {
          "internalType": "uint256",
          "name": "depositTime",
          "type": "uint256"
        }
      ],
      "stateMutability": "view",
      "type": "function"
    },
    {
      "inputs": [],
      "name": "getContractETHBalance",
      "outputs": [
        {
          "internalType": "uint256",
          "name": "",
          "type": "uint256"
        }
      ],
      "stateMutability": "view",
      "type": "function"
    },
    {
      "inputs": [],
      "name": "getContractTokenBalance",
      "outputs": [
        {
          "internalType": "uint256",
          "name": "",
          "type": "uint256"
        }
      ],
      "stateMutability": "view",
      "type": "function"
    },
    {
      "inputs": [],
      "name": "getETHBalance",
      "outputs": [
        {
          "internalType": "uint256",
          "name": "",
          "type": "uint256"
        }
      ],
      "stateMutability": "view",
      "type": "function"
    },
    {
      "inputs": [],
      "name": "getTokenBalance",
      "outputs": [
        {
          "internalType": "uint256",
          "name": "",
          "type": "uint256"
        }
      ],
      "stateMutability": "view",
      "type": "function"
    },
    {
      "inputs": [],
      "name": "token",
      "outputs": [
        {
          "internalType": "contract IERC20",
          "name": "",
          "type": "address"
        }
      ],
      "stateMutability": "view",
      "type": "function"
    },
    {
      "inputs": [
        {
          "internalType": "uint256",
          "name": "amount",
          "type": "uint256"
        }
      ],
      "name": "withdrawETH",
      "outputs": [],
      "stateMutability": "nonpayable",
      "type": "function"
    },
    {
      "inputs": [
        {
          "internalType": "uint256",
          "name": "amount",
          "type": "uint256"
        }
      ],
      "name": "withdrawToken",
      "outputs": [],
      "stateMutability": "nonpayable",
      "type": "function"
    }
  ],
  "bytecode": "0x60806040523480156200001157600080fd5b50604051620019353803806200193583398181016040528101906200003791906200009e565b600160008190555080600260006101000a81548173ffffffffffffffffffffffffffffffffffffffff021916908373ffffffffffffffffffffffffffffffffffffffff1602179055505062000118565b6000815190506200009881620000fe565b92915050565b600060208284031215620000b157600080fd5b6000620000c18482850162000087565b91505092915050565b6000620000d782620000de565b9050919050565b600073ffffffffffffffffffffffffffffffffffffffff82169050919050565b6200010981620000ca565b81146200011557600080fd5b50565b61180d80620001286000396000f3fe6080604052600436106100a75760003560e01c80638c89a0ad116100645780638c89a0ad146101aa578063cc3266e8146101d5578063f14210a614610200578063f6326fb314610229578063fc0c546a14610233578063fc7e286d1461025e576100a7565b8063317d9453146100ac57806350baa622146100d75780635b72a33a146101005780636215be771461012b5780636e9472981461015457806382b2e2571461017f575b600080fd5b3480156100b857600080fd5b506100c161029d565b6040516100ce919061151c565b60405180910390f35b3480156100e357600080fd5b506100fe60048036038101906100f991906110dd565b61034f565b005b34801561010c57600080fd5b506101156105cb565b604051610122919061151c565b60405180910390f35b34801561013757600080fd5b50610152600480360381019061014d91906110dd565b6105d1565b005b34801561016057600080fd5b50610169610811565b604051610176919061151c565b60405180910390f35b34801561018b57600080fd5b50610194610989565b6040516101a1919061151c565b60405180910390f35b3480156101b657600080fd5b506101bf6109d3565b6040516101cc919061151c565b60405180910390f35b3480156101e157600080fd5b506101ea6109db565b6040516101f7919061151c565b60405180910390f35b34801561020c57600080fd5b50610227600480360381019061022291906110dd565b6109e1565b005b610231610c1c565b005b34801561023f57600080fd5b50610248610d6b565b6040516102559190611421565b60405180910390f35b34801561026a57600080fd5b506102856004803603810190610280919061108b565b610d91565b60405161029493929190611560565b60405180910390f35b6000600260009054906101000a900473ffffffffffffffffffffffffffffffffffffffff1673ffffffffffffffffffffffffffffffffffffffff166370a08231306040518263ffffffff1660e01b81526004016102fa91906113a6565b60206040518083038186803b15801561031257600080fd5b505afa158015610326573d6000803e3d6000fd5b505050506040513d601f19601f8201168201806040525081019061034a9190611106565b905090565b610357610dbb565b6000811161039a576040517f08c379a00000000000000000000000000000000000000000000000000000000081526004016103919061149c565b60405180910390fd5b6103a333610e0b565b80600160003373ffffffffffffffffffffffffffffffffffffffff1673ffffffffffffffffffffffffffffffffffffffff168152602001908152602001600020600101541015610428576040517f08c379a000000000000000000000000000000000000000000000000000000000815260040161041f906114bc565b60405180910390fd5b80600160003373ffffffffffffffffffffffffffffffffffffffff1673ffffffffffffffffffffffffffffffffffffffff168152602001908152602001600020600101600082825461047a9190611694565b92505081905550600260009054906101000a900473ffffffffffffffffffffffffffffffffffffffff1673ffffffffffffffffffffffffffffffffffffffff1663a9059cbb33836040518363ffffffff1660e01b81526004016104de9291906113f8565b602060405180830381600087803b1580156104f857600080fd5b505af115801561050c573d6000803e3d6000fd5b505050506040513d601f19601f8201168201806040525081019061053091906110b4565b61056f576040517f08c379a00000000000000000000000000000000000000000000000000000000081526004016105669061147c565b60405180910390fd5b3373ffffffffffffffffffffffffffffffffffffffff167f06e0c61e7e9f4912ee1f3ce060b59207b98f9a232d711462af3166aeeed1250a8260006040516105b8929190611537565b60405180910390a26105c861102d565b50565b6101f481565b6105d9610dbb565b6000811161061c576040517f08c379a00000000000000000000000000000000000000000000000000000000081526004016106139061143c565b60405180910390fd5b600260009054906101000a900473ffffffffffffffffffffffffffffffffffffffff1673ffffffffffffffffffffffffffffffffffffffff166323b872dd3330846040518463ffffffff1660e01b815260040161067b939291906113c1565b602060405180830381600087803b15801561069557600080fd5b505af11580156106a9573d6000803e3d6000fd5b505050506040513d601f19601f820116820180604052508101906106cd91906110b4565b61070c576040517f08c379a00000000000000000000000000000000000000000000000000000000081526004016107039061147c565b60405180910390fd5b61071533610e0b565b80600160003373ffffffffffffffffffffffffffffffffffffffff1673ffffffffffffffffffffffffffffffffffffffff168152602001908152602001600020600101600082825461076791906115b3565b9250508190555042600160003373ffffffffffffffffffffffffffffffffffffffff1673ffffffffffffffffffffffffffffffffffffffff168152602001908152602001600020600201819055503373ffffffffffffffffffffffffffffffffffffffff167f693c1828300d1cab0919b948d714897f817e305af51c026ad14233b6a8939adb8260006040516107fe929190611537565b60405180910390a261080e61102d565b50565b600080600160003373ffffffffffffffffffffffffffffffffffffffff1673ffffffffffffffffffffffffffffffffffffffff1681526020019081526020016000206002015414156108665760009050610986565b6000600160003373ffffffffffffffffffffffffffffffffffffffff1673ffffffffffffffffffffffffffffffffffffffff16815260200190815260200160002060020154426108b69190611694565b905060006127106301e133806108cc919061163a565b826101f4600160003373ffffffffffffffffffffffffffffffffffffffff1673ffffffffffffffffffffffffffffffffffffffff1681526020019081526020016000206000015461091d919061163a565b610927919061163a565b6109319190611609565b905080600160003373ffffffffffffffffffffffffffffffffffffffff1673ffffffffffffffffffffffffffffffffffffffff1681526020019081526020016000206000015461098191906115b3565b925050505b90565b6000600160003373ffffffffffffffffffffffffffffffffffffffff1673ffffffffffffffffffffffffffffffffffffffff16815260200190815260200160002060010154905090565b600047905090565b61271081565b6109e9610dbb565b60008111610a2c576040517f08c379a0000000000000000000000000000000000000000000000000000000008152600401610a239061149c565b60405180910390fd5b610a3533610e0b565b80600160003373ffffffffffffffffffffffffffffffffffffffff1673ffffffffffffffffffffffffffffffffffffffff168152602001908152602001600020600001541015610aba576040517f08c379a0000000000000000000000000000000000000000000000000000000008152600401610ab19061145c565b60405180910390fd5b80600160003373ffffffffffffffffffffffffffffffffffffffff1673ffffffffffffffffffffffffffffffffffffffff1681526020019081526020016000206000016000828254610b0c9190611694565b9250508190555060003373ffffffffffffffffffffffffffffffffffffffff1682604051610b3990611391565b60006040518083038185875af1925050503d8060008114610b76576040519150601f19603f3d011682016040523d82523d6000602084013e610b7b565b606091505b5050905080610bbf576040517f08c379a0000000000000000000000000000000000000000000000000000000008152600401610bb6906114dc565b60405180910390fd5b3373ffffffffffffffffffffffffffffffffffffffff167f06e0c61e7e9f4912ee1f3ce060b59207b98f9a232d711462af3166aeeed1250a836001604051610c08929190611537565b60405180910390a250610c1961102d565b50565b610c24610dbb565b60003411610c67576040517f08c379a0000000000000000000000000000000000000000000000000000000008152600401610c5e9061143c565b60405180910390fd5b610c7033610e0b565b34600160003373ffffffffffffffffffffffffffffffffffffffff1673ffffffffffffffffffffffffffffffffffffffff1681526020019081526020016000206000016000828254610cc291906115b3565b9250508190555042600160003373ffffffffffffffffffffffffffffffffffffffff1673ffffffffffffffffffffffffffffffffffffffff168152602001908152602001600020600201819055503373ffffffffffffffffffffffffffffffffffffffff167f693c1828300d1cab0919b948d714897f817e305af51c026ad14233b6a8939adb346001604051610d59929190611537565b60405180910390a2610d6961102d565b565b600260009054906101000a900473ffffffffffffffffffffffffffffffffffffffff1681565b60016020528060005260406000206000915090508060000154908060010154908060020154905083565b60026000541415610e01576040517f08c379a0000000000000000000000000000000000000000000000000000000008152600401610df8906114fc565b60405180910390fd5b6002600081905550565b6000600160008373ffffffffffffffffffffffffffffffffffffffff1673ffffffffffffffffffffffffffffffffffffffff1681526020019081526020016000206002015442610e5b9190611694565b9050600081118015610eaf57506000600160008473ffffffffffffffffffffffffffffffffffffffff1673ffffffffffffffffffffffffffffffffffffffff16815260200190815260200160002060000154115b15610fe25760006127106301e13380610ec8919061163a565b826101f4600160008773ffffffffffffffffffffffffffffffffffffffff1673ffffffffffffffffffffffffffffffffffffffff16815260200190815260200160002060000154610f19919061163a565b610f23919061163a565b610f2d9190611609565b90506000811115610fe05780600160008573ffffffffffffffffffffffffffffffffffffffff1673ffffffffffffffffffffffffffffffffffffffff1681526020019081526020016000206000016000828254610f8a91906115b3565b925050819055508273ffffffffffffffffffffffffffffffffffffffff167f16cbc685358ca7d4e6b273dcdf2cb5d18c80b950aa2319b519756cd016233a6c82604051610fd7919061151c565b60405180910390a25b505b42600160008473ffffffffffffffffffffffffffffffffffffffff1673ffffffffffffffffffffffffffffffffffffffff168152602001908152602001600020600201819055505050565b6001600081905550565b60008135905061104681611792565b92915050565b60008151905061105b816117a9565b92915050565b600081359050611070816117c0565b92915050565b600081519050611085816117c0565b92915050565b60006020828403121561109d57600080fd5b60006110ab84828501611037565b91505092915050565b6000602082840312156110c657600080fd5b60006110d48482850161104c565b91505092915050565b6000602082840312156110ef57600080fd5b60006110fd84828501611061565b91505092915050565b60006020828403121561111857600080fd5b600061112684828501611076565b91505092915050565b611138816116c8565b82525050565b611147816116da565b82525050565b61115681611710565b82525050565b60006111696025836115a2565b91507f4465706f73697420616d6f756e74206d7573742062652067726561746572207460008301527f68616e20300000000000000000000000000000000000000000000000000000006020830152604082019050919050565b60006111cf6018836115a2565b91507f496e73756666696369656e74204554482062616c616e636500000000000000006000830152602082019050919050565b600061120f6015836115a2565b91507f546f6b656e207472616e73666572206661696c656400000000000000000000006000830152602082019050919050565b600061124f6028836115a2565b91507f5769746864726177616c20616d6f756e74206d7573742062652067726561746560008301527f72207468616e20300000000000000000000000000000000000000000000000006020830152604082019050919050565b60006112b5601a836115a2565b91507f496e73756666696369656e7420746f6b656e2062616c616e63650000000000006000830152602082019050919050565b60006112f5600083611597565b9150600082019050919050565b600061130f6013836115a2565b91507f455448207472616e73666572206661696c6564000000000000000000000000006000830152602082019050919050565b600061134f601f836115a2565b91507f5265656e7472616e637947756172643a207265656e7472616e742063616c6c006000830152602082019050919050565b61138b81611706565b82525050565b600061139c826112e8565b9150819050919050565b60006020820190506113bb600083018461112f565b92915050565b60006060820190506113d6600083018661112f565b6113e3602083018561112f565b6113f06040830184611382565b949350505050565b600060408201905061140d600083018561112f565b61141a6020830184611382565b9392505050565b6000602082019050611436600083018461114d565b92915050565b600060208201905081810360008301526114558161115c565b9050919050565b60006020820190508181036000830152611475816111c2565b9050919050565b6000602082019050818103600083015261149581611202565b9050919050565b600060208201905081810360008301526114b581611242565b9050919050565b600060208201905081810360008301526114d5816112a8565b9050919050565b600060208201905081810360008301526114f581611302565b9050919050565b6000602082019050818103600083015261151581611342565b9050919050565b60006020820190506115316000830184611382565b92915050565b600060408201905061154c6000830185611382565b611559602083018461113e565b9392505050565b60006060820190506115756000830186611382565b6115826020830185611382565b61158f6040830184611382565b949350505050565b600081905092915050565b600082825260208201905092915050565b60006115be82611706565b91506115c983611706565b9250827fffffffffffffffffffffffffffffffffffffffffffffffffffffffffffffffff038211156115fe576115fd611734565b5b828201905092915050565b600061161482611706565b915061161f83611706565b92508261162f5761162e611763565b5b828204905092915050565b600061164582611706565b915061165083611706565b9250817fffffffffffffffffffffffffffffffffffffffffffffffffffffffffffffffff048311821515161561168957611688611734565b5b828202905092915050565b600061169f82611706565b91506116aa83611706565b9250828210156116bd576116bc611734565b5b828203905092915050565b60006116d3826116e6565b9050919050565b60008115159050919050565b600073ffffffffffffffffffffffffffffffffffffffff82169050919050565b6000819050919050565b600061171b82611722565b9050919050565b600061172d826116e6565b9050919050565b7f4e487b7100000000000000000000000000000000000000000000000000000000600052601160045260246000fd5b7f4e487b7100000000000000000000000000000000000000000000000000000000600052601260045260246000fd5b61179b816116c8565b81146117a657600080fd5b50565b6117b2816116da565b81146117bd57600080fd5b50565b6117c981611706565b81146117d457600080fd5b5056fea264697066735822122064e86bf9629e6e9a22c1893ceff8b86e84fe2d2613fd51e81170c5717be5a2e064736f6c63430008000033",
  "linkReferences": {},
  "deployedLinkReferences": {}
}